{
  "_format": "hh-sol-artifact-1",
  "contractName": "PeerToPeerLending",
  "sourceName": "contracts/PeerToPeerLending.sol",
  "abi": [
    {
      "inputs": [],
      "name": "CannotBorrowAsLender",
      "type": "error"
    },
    {
      "inputs": [],
      "name": "CannotLendAsBorrower",
      "type": "error"
    },
    {
      "inputs": [],
      "name": "InvalidAmount",
      "type": "error"
    },
    {
      "inputs": [],
      "name": "InvalidDueDate",
      "type": "error"
    },
    {
      "inputs": [],
      "name": "LoanNotFundable",
      "type": "error"
    },
    {
      "inputs": [],
      "name": "LoanNotRepayable",
      "type": "error"
    },
    {
      "inputs": [],
      "name": "MaxLoansReached",
      "type": "error"
    },
    {
      "anonymous": false,
      "inputs": [
        {
          "indexed": true,
          "internalType": "uint256",
          "name": "loanIndex",
          "type": "uint256"
        },
        {
          "indexed": true,
          "internalType": "address",
          "name": "lender",
          "type": "address"
        },
        {
          "indexed": true,
          "internalType": "address",
          "name": "borrower",
          "type": "address"
        },
        {
          "indexed": false,
          "internalType": "uint256",
          "name": "amount",
          "type": "uint256"
        },
        {
          "indexed": false,
          "internalType": "uint256",
          "name": "fundDate",
          "type": "uint256"
        }
      ],
      "name": "LoanFunded",
      "type": "event"
    },
    {
      "anonymous": false,
      "inputs": [
        {
          "indexed": true,
          "internalType": "uint256",
          "name": "loanIndex",
          "type": "uint256"
        },
        {
          "indexed": true,
          "internalType": "address",
          "name": "borrower",
          "type": "address"
        },
        {
          "indexed": true,
          "internalType": "address",
          "name": "lender",
          "type": "address"
        },
        {
          "indexed": false,
          "internalType": "uint256",
          "name": "amount",
          "type": "uint256"
        },
        {
          "indexed": false,
          "internalType": "uint256",
          "name": "interestAccrued",
          "type": "uint256"
        }
      ],
      "name": "LoanRepaid",
      "type": "event"
    },
    {
      "anonymous": false,
      "inputs": [
        {
          "indexed": true,
          "internalType": "uint256",
          "name": "loanIndex",
          "type": "uint256"
        },
        {
          "indexed": true,
          "internalType": "address",
          "name": "borrower",
          "type": "address"
        },
        {
          "indexed": false,
          "internalType": "uint256",
          "name": "amount",
          "type": "uint256"
        },
        {
          "indexed": false,
          "internalType": "string",
          "name": "mortgageCID",
          "type": "string"
        },
        {
          "indexed": false,
          "internalType": "uint256",
          "name": "dueDate",
          "type": "uint256"
        }
      ],
      "name": "LoanRequested",
      "type": "event"
    },
    {
      "inputs": [
        {
          "internalType": "uint256",
          "name": "",
          "type": "uint256"
        }
      ],
      "name": "borrowers",
      "outputs": [
        {
          "internalType": "address",
          "name": "",
          "type": "address"
        }
      ],
      "stateMutability": "view",
      "type": "function"
    },
    {
      "inputs": [
        {
          "internalType": "uint256",
          "name": "loanIndex",
          "type": "uint256"
        }
      ],
      "name": "fundLoan",
      "outputs": [],
      "stateMutability": "payable",
      "type": "function"
    },
    {
      "inputs": [
        {
          "internalType": "address",
          "name": "_user",
          "type": "address"
        }
      ],
      "name": "getAccountDetails",
      "outputs": [
        {
          "internalType": "enum PeerToPeerLending.AccountType",
          "name": "accountType",
          "type": "uint8"
        },
        {
          "components": [
            {
              "internalType": "uint256",
              "name": "index",
              "type": "uint256"
            },
            {
              "internalType": "address",
              "name": "borrower",
              "type": "address"
            },
            {
              "internalType": "address",
              "name": "lender",
              "type": "address"
            },
            {
              "internalType": "uint256",
              "name": "amount",
              "type": "uint256"
            },
            {
              "internalType": "string",
              "name": "mortgageCID",
              "type": "string"
            },
            {
              "internalType": "uint256",
              "name": "dueDate",
              "type": "uint256"
            },
            {
              "internalType": "enum PeerToPeerLending.LoanStatus",
              "name": "status",
              "type": "uint8"
            },
            {
              "internalType": "uint256",
              "name": "requestDate",
              "type": "uint256"
            },
            {
              "internalType": "uint256",
              "name": "fundDate",
              "type": "uint256"
            },
            {
              "internalType": "uint256",
              "name": "repayDate",
              "type": "uint256"
            },
            {
              "internalType": "uint256",
              "name": "interestAccrued",
              "type": "uint256"
            },
            {
              "internalType": "bool",
              "name": "isRepaid",
              "type": "bool"
            }
          ],
          "internalType": "struct PeerToPeerLending.Loan[]",
          "name": "userLoans",
          "type": "tuple[]"
        }
      ],
      "stateMutability": "view",
      "type": "function"
    },
    {
      "inputs": [],
      "name": "getAllLoans",
      "outputs": [
        {
          "components": [
            {
              "internalType": "uint256",
              "name": "index",
              "type": "uint256"
            },
            {
              "internalType": "address",
              "name": "borrower",
              "type": "address"
            },
            {
              "internalType": "address",
              "name": "lender",
              "type": "address"
            },
            {
              "internalType": "uint256",
              "name": "amount",
              "type": "uint256"
            },
            {
              "internalType": "string",
              "name": "mortgageCID",
              "type": "string"
            },
            {
              "internalType": "uint256",
              "name": "dueDate",
              "type": "uint256"
            },
            {
              "internalType": "enum PeerToPeerLending.LoanStatus",
              "name": "status",
              "type": "uint8"
            },
            {
              "internalType": "uint256",
              "name": "requestDate",
              "type": "uint256"
            },
            {
              "internalType": "uint256",
              "name": "fundDate",
              "type": "uint256"
            },
            {
              "internalType": "uint256",
              "name": "repayDate",
              "type": "uint256"
            },
            {
              "internalType": "uint256",
              "name": "interestAccrued",
              "type": "uint256"
            },
            {
              "internalType": "bool",
              "name": "isRepaid",
              "type": "bool"
            }
          ],
          "internalType": "struct PeerToPeerLending.Loan[]",
          "name": "allLoans",
          "type": "tuple[]"
        }
      ],
      "stateMutability": "view",
      "type": "function"
    },
    {
      "inputs": [],
      "name": "loanCounter",
      "outputs": [
        {
          "internalType": "uint256",
          "name": "",
          "type": "uint256"
        }
      ],
      "stateMutability": "view",
      "type": "function"
    },
    {
      "inputs": [
        {
          "internalType": "uint256",
          "name": "",
          "type": "uint256"
        }
      ],
      "name": "loans",
      "outputs": [
        {
          "internalType": "uint256",
          "name": "index",
          "type": "uint256"
        },
        {
          "internalType": "address",
          "name": "borrower",
          "type": "address"
        },
        {
          "internalType": "address",
          "name": "lender",
          "type": "address"
        },
        {
          "internalType": "uint256",
          "name": "amount",
          "type": "uint256"
        },
        {
          "internalType": "string",
          "name": "mortgageCID",
          "type": "string"
        },
        {
          "internalType": "uint256",
          "name": "dueDate",
          "type": "uint256"
        },
        {
          "internalType": "enum PeerToPeerLending.LoanStatus",
          "name": "status",
          "type": "uint8"
        },
        {
          "internalType": "uint256",
          "name": "requestDate",
          "type": "uint256"
        },
        {
          "internalType": "uint256",
          "name": "fundDate",
          "type": "uint256"
        },
        {
          "internalType": "uint256",
          "name": "repayDate",
          "type": "uint256"
        },
        {
          "internalType": "uint256",
          "name": "interestAccrued",
          "type": "uint256"
        },
        {
          "internalType": "bool",
          "name": "isRepaid",
          "type": "bool"
        }
      ],
      "stateMutability": "view",
      "type": "function"
    },
    {
      "inputs": [
        {
          "internalType": "uint256",
          "name": "loanIndex",
          "type": "uint256"
        }
      ],
      "name": "repayLoan",
      "outputs": [],
      "stateMutability": "payable",
      "type": "function"
    },
    {
      "inputs": [
        {
          "internalType": "uint256",
          "name": "_amount",
          "type": "uint256"
        },
        {
          "internalType": "string",
          "name": "_mortgageCID",
          "type": "string"
        },
        {
          "internalType": "uint256",
          "name": "_dueDate",
          "type": "uint256"
        }
      ],
      "name": "requestLoan",
      "outputs": [],
      "stateMutability": "nonpayable",
      "type": "function"
    },
    {
      "inputs": [
        {
          "internalType": "address",
          "name": "",
          "type": "address"
        }
      ],
      "name": "userAccounts",
      "outputs": [
        {
          "internalType": "enum PeerToPeerLending.AccountType",
          "name": "accountType",
          "type": "uint8"
        },
        {
          "internalType": "uint256",
          "name": "loanCount",
          "type": "uint256"
        }
      ],
      "stateMutability": "view",
      "type": "function"
    }
  ],
  "bytecode": "0x608060405234801561001057600080fd5b5061233b806100206000396000f3fe6080604052600436106100865760003560e01c8063846b909a11610059578063846b909a1461016f578063a5bfd16a1461018b578063ab7b1c89146101b6578063e1ec3c68146101d2578063f1604fee1461021a57610086565b80632aceb5341461008b57806334d9289e146100c95780635251d91c146100f45780637924d93f14610132575b600080fd5b34801561009757600080fd5b506100b260048036038101906100ad9190611696565b610243565b6040516100c0929190611a1b565b60405180910390f35b3480156100d557600080fd5b506100de6105a5565b6040516100eb9190611a5a565b60405180910390f35b34801561010057600080fd5b5061011b60048036038101906101169190611696565b6105ab565b604051610129929190611a75565b60405180910390f35b34801561013e57600080fd5b5061015960048036038101906101549190611aca565b6105dc565b6040516101669190611b06565b60405180910390f35b61018960048036038101906101849190611aca565b61061b565b005b34801561019757600080fd5b506101a06109b8565b6040516101ad9190611b21565b60405180910390f35b6101d060048036038101906101cb9190611aca565b610c47565b005b3480156101de57600080fd5b506101f960048036038101906101f49190611aca565b610f67565b6040516102119c9b9a99989796959493929190611bab565b60405180910390f35b34801561022657600080fd5b50610241600480360381019061023c9190611da1565b6110a9565b005b6000606060008060008573ffffffffffffffffffffffffffffffffffffffff1673ffffffffffffffffffffffffffffffffffffffff16815260200190815260200160002090506000816001015490506000826002018054806020026020016040519081016040528092919081815260200182805480156102e257602002820191906000526020600020905b8154815260200190600101908083116102ce575b505050505090508167ffffffffffffffff81111561030357610302611c76565b5b60405190808252806020026020018201604052801561033c57816020015b610329611583565b8152602001906001900390816103215790505b50935060005b82811015610588576001600083838151811061036157610360611e10565b5b6020026020010151815260200190815260200160002060405180610180016040529081600082015481526020016001820160009054906101000a900473ffffffffffffffffffffffffffffffffffffffff1673ffffffffffffffffffffffffffffffffffffffff1673ffffffffffffffffffffffffffffffffffffffff1681526020016002820160009054906101000a900473ffffffffffffffffffffffffffffffffffffffff1673ffffffffffffffffffffffffffffffffffffffff1673ffffffffffffffffffffffffffffffffffffffff1681526020016003820154815260200160048201805461045390611e6e565b80601f016020809104026020016040519081016040528092919081815260200182805461047f90611e6e565b80156104cc5780601f106104a1576101008083540402835291602001916104cc565b820191906000526020600020905b8154815290600101906020018083116104af57829003601f168201915b50505050508152602001600582015481526020016006820160009054906101000a900460ff166003811115610504576105036116c3565b5b6003811115610516576105156116c3565b5b8152602001600782015481526020016008820154815260200160098201548152602001600a8201548152602001600b820160009054906101000a900460ff1615151515815250508582815181106105705761056f611e10565b5b60200260200101819052508080600101915050610342565b508260000160009054906101000a900460ff169450505050915091565b60025481565b60006020528060005260406000206000915090508060000160009054906101000a900460ff16908060010154905082565b600381815481106105ec57600080fd5b906000526020600020016000915054906101000a900473ffffffffffffffffffffffffffffffffffffffff1681565b600060016000838152602001908152602001600020905060006003811115610646576106456116c3565b5b8160060160009054906101000a900460ff16600381111561066a576106696116c3565b5b146106a1576040517fdf37fce800000000000000000000000000000000000000000000000000000000815260040160405180910390fd5b806003015434146106de576040517f2c5211c600000000000000000000000000000000000000000000000000000000815260040160405180910390fd5b60008060003373ffffffffffffffffffffffffffffffffffffffff1673ffffffffffffffffffffffffffffffffffffffff168152602001908152602001600020905060006002811115610734576107336116c3565b5b8160000160009054906101000a900460ff166002811115610758576107576116c3565b5b0361078f5760018160000160006101000a81548160ff02191690836002811115610785576107846116c3565b5b02179055506107fe565b6002808111156107a2576107a16116c3565b5b8160000160009054906101000a900460ff1660028111156107c6576107c56116c3565b5b036107fd576040517f7bc34bdd00000000000000000000000000000000000000000000000000000000815260040160405180910390fd5b5b338260020160006101000a81548173ffffffffffffffffffffffffffffffffffffffff021916908373ffffffffffffffffffffffffffffffffffffffff16021790555060018260060160006101000a81548160ff02191690836003811115610869576108686116c3565b5b0217905550428260080181905550806002018390806001815401808255809150506001900390600052602060002001600090919091909150558060010160008154809291906108b790611ece565b91905055508160010160009054906101000a900473ffffffffffffffffffffffffffffffffffffffff1673ffffffffffffffffffffffffffffffffffffffff166108fc349081150290604051600060405180830381858888f19350505050158015610926573d6000803e3d6000fd5b508160010160009054906101000a900473ffffffffffffffffffffffffffffffffffffffff1673ffffffffffffffffffffffffffffffffffffffff163373ffffffffffffffffffffffffffffffffffffffff16847f165e2cd73251fb132ee02500587d3ecca9c366474f70646e06c89646c57bd82434426040516109ab929190611f16565b60405180910390a4505050565b606060025467ffffffffffffffff8111156109d6576109d5611c76565b5b604051908082528060200260200182016040528015610a0f57816020015b6109fc611583565b8152602001906001900390816109f45790505b50905060005b600254811015610c43576001600082815260200190815260200160002060405180610180016040529081600082015481526020016001820160009054906101000a900473ffffffffffffffffffffffffffffffffffffffff1673ffffffffffffffffffffffffffffffffffffffff1673ffffffffffffffffffffffffffffffffffffffff1681526020016002820160009054906101000a900473ffffffffffffffffffffffffffffffffffffffff1673ffffffffffffffffffffffffffffffffffffffff1673ffffffffffffffffffffffffffffffffffffffff16815260200160038201548152602001600482018054610b0e90611e6e565b80601f0160208091040260200160405190810160405280929190818152602001828054610b3a90611e6e565b8015610b875780601f10610b5c57610100808354040283529160200191610b87565b820191906000526020600020905b815481529060010190602001808311610b6a57829003601f168201915b50505050508152602001600582015481526020016006820160009054906101000a900460ff166003811115610bbf57610bbe6116c3565b5b6003811115610bd157610bd06116c3565b5b8152602001600782015481526020016008820154815260200160098201548152602001600a8201548152602001600b820160009054906101000a900460ff161515151581525050828281518110610c2b57610c2a611e10565b5b60200260200101819052508080600101915050610a15565b5090565b600060016000838152602001908152602001600020905060016003811115610c7257610c716116c3565b5b8160060160009054906101000a900460ff166003811115610c9657610c956116c3565b5b14610ccd576040517f177a43dd00000000000000000000000000000000000000000000000000000000815260040160405180910390fd5b8060010160009054906101000a900473ffffffffffffffffffffffffffffffffffffffff1673ffffffffffffffffffffffffffffffffffffffff163373ffffffffffffffffffffffffffffffffffffffff1614610d56576040517f2c5211c600000000000000000000000000000000000000000000000000000000815260040160405180910390fd5b6000816008015442610d689190611f3f565b905060006301e1338090506000670de0b6b3a764000090506000828285610d8f9190611f73565b610d999190611fe4565b90506000826064610daa9190611f73565b8260148860030154610dbc9190611f73565b610dc69190611f73565b610dd09190611fe4565b90506000818760030154610de49190612015565b905060028760060160006101000a81548160ff02191690836003811115610e0e57610e0d6116c3565b5b02179055508187600a0181905550428760090181905550600187600b0160006101000a81548160ff0219169083151502179055508660020160009054906101000a900473ffffffffffffffffffffffffffffffffffffffff1673ffffffffffffffffffffffffffffffffffffffff166108fc349081150290604051600060405180830381858888f19350505050158015610eac573d6000803e3d6000fd5b508660020160009054906101000a900473ffffffffffffffffffffffffffffffffffffffff1673ffffffffffffffffffffffffffffffffffffffff168760010160009054906101000a900473ffffffffffffffffffffffffffffffffffffffff1673ffffffffffffffffffffffffffffffffffffffff16897f66fcbe062e6d58bed3b37774bf7287529fea15e7983e73be4d0a7720d94430be8486604051610f55929190611f16565b60405180910390a45050505050505050565b60016020528060005260406000206000915090508060000154908060010160009054906101000a900473ffffffffffffffffffffffffffffffffffffffff16908060020160009054906101000a900473ffffffffffffffffffffffffffffffffffffffff1690806003015490806004018054610fe290611e6e565b80601f016020809104026020016040519081016040528092919081815260200182805461100e90611e6e565b801561105b5780601f106110305761010080835404028352916020019161105b565b820191906000526020600020905b81548152906001019060200180831161103e57829003601f168201915b5050505050908060050154908060060160009054906101000a900460ff169080600701549080600801549080600901549080600a01549080600b0160009054906101000a900460ff1690508c565b600083036110e3576040517f2c5211c600000000000000000000000000000000000000000000000000000000815260040160405180910390fd5b42811161111c576040517fa1ff8dcd00000000000000000000000000000000000000000000000000000000815260040160405180910390fd5b60008060003373ffffffffffffffffffffffffffffffffffffffff1673ffffffffffffffffffffffffffffffffffffffff168152602001908152602001600020905060016002811115611172576111716116c3565b5b8160000160009054906101000a900460ff166002811115611196576111956116c3565b5b036111cd576040517f239705c900000000000000000000000000000000000000000000000000000000815260040160405180910390fd5b600581600101541061120b576040517ff01f1c8600000000000000000000000000000000000000000000000000000000815260040160405180910390fd5b60405180610180016040528060025481526020013373ffffffffffffffffffffffffffffffffffffffff168152602001600073ffffffffffffffffffffffffffffffffffffffff1681526020018581526020018481526020018381526020016000600381111561127e5761127d6116c3565b5b8152602001428152602001600081526020016000815260200160008152602001600015158152506001600060025481526020019081526020016000206000820151816000015560208201518160010160006101000a81548173ffffffffffffffffffffffffffffffffffffffff021916908373ffffffffffffffffffffffffffffffffffffffff16021790555060408201518160020160006101000a81548173ffffffffffffffffffffffffffffffffffffffff021916908373ffffffffffffffffffffffffffffffffffffffff16021790555060608201518160030155608082015181600401908161137191906121f5565b5060a0820151816005015560c08201518160060160006101000a81548160ff021916908360038111156113a7576113a66116c3565b5b021790555060e082015181600701556101008201518160080155610120820151816009015561014082015181600a015561016082015181600b0160006101000a81548160ff02191690831515021790555090505080600201600254908060018154018082558091505060019003906000526020600020016000909190919091505580600101600081548092919061143d90611ece565b919050555060006002811115611456576114556116c3565b5b8160000160009054906101000a900460ff16600281111561147a576114796116c3565b5b036115105760028160000160006101000a81548160ff021916908360028111156114a7576114a66116c3565b5b02179055506003339080600181540180825580915050600190039060005260206000200160009091909190916101000a81548173ffffffffffffffffffffffffffffffffffffffff021916908373ffffffffffffffffffffffffffffffffffffffff1602179055505b3373ffffffffffffffffffffffffffffffffffffffff166002547f289af266d01712d9421f94ee1365ce7b6f9d040f509bfd83b7fe2fb975cb89d686868660405161155d939291906122c7565b60405180910390a36002600081548092919061157890611ece565b919050555050505050565b60405180610180016040528060008152602001600073ffffffffffffffffffffffffffffffffffffffff168152602001600073ffffffffffffffffffffffffffffffffffffffff168152602001600081526020016060815260200160008152602001600060038111156115f9576115f86116c3565b5b8152602001600081526020016000815260200160008152602001600081526020016000151581525090565b6000604051905090565b600080fd5b600080fd5b600073ffffffffffffffffffffffffffffffffffffffff82169050919050565b600061166382611638565b9050919050565b61167381611658565b811461167e57600080fd5b50565b6000813590506116908161166a565b92915050565b6000602082840312156116ac576116ab61162e565b5b60006116ba84828501611681565b91505092915050565b7f4e487b7100000000000000000000000000000000000000000000000000000000600052602160045260246000fd5b60038110611703576117026116c3565b5b50565b6000819050611714826116f2565b919050565b600061172482611706565b9050919050565b61173481611719565b82525050565b600081519050919050565b600082825260208201905092915050565b6000819050602082019050919050565b6000819050919050565b61177981611766565b82525050565b61178881611658565b82525050565b600081519050919050565b600082825260208201905092915050565b60005b838110156117c85780820151818401526020810190506117ad565b60008484015250505050565b6000601f19601f8301169050919050565b60006117f08261178e565b6117fa8185611799565b935061180a8185602086016117aa565b611813816117d4565b840191505092915050565b6004811061182f5761182e6116c3565b5b50565b60008190506118408261181e565b919050565b600061185082611832565b9050919050565b61186081611845565b82525050565b60008115159050919050565b61187b81611866565b82525050565b60006101808301600083015161189a6000860182611770565b5060208301516118ad602086018261177f565b5060408301516118c0604086018261177f565b5060608301516118d36060860182611770565b50608083015184820360808601526118eb82826117e5565b91505060a083015161190060a0860182611770565b5060c083015161191360c0860182611857565b5060e083015161192660e0860182611770565b5061010083015161193b610100860182611770565b50610120830151611950610120860182611770565b50610140830151611965610140860182611770565b5061016083015161197a610160860182611872565b508091505092915050565b60006119918383611881565b905092915050565b6000602082019050919050565b60006119b18261173a565b6119bb8185611745565b9350836020820285016119cd85611756565b8060005b85811015611a0957848403895281516119ea8582611985565b94506119f583611999565b925060208a019950506001810190506119d1565b50829750879550505050505092915050565b6000604082019050611a30600083018561172b565b8181036020830152611a4281846119a6565b90509392505050565b611a5481611766565b82525050565b6000602082019050611a6f6000830184611a4b565b92915050565b6000604082019050611a8a600083018561172b565b611a976020830184611a4b565b9392505050565b611aa781611766565b8114611ab257600080fd5b50565b600081359050611ac481611a9e565b92915050565b600060208284031215611ae057611adf61162e565b5b6000611aee84828501611ab5565b91505092915050565b611b0081611658565b82525050565b6000602082019050611b1b6000830184611af7565b92915050565b60006020820190508181036000830152611b3b81846119a6565b905092915050565b600082825260208201905092915050565b6000611b5f8261178e565b611b698185611b43565b9350611b798185602086016117aa565b611b82816117d4565b840191505092915050565b611b9681611845565b82525050565b611ba581611866565b82525050565b600061018082019050611bc1600083018f611a4b565b611bce602083018e611af7565b611bdb604083018d611af7565b611be8606083018c611a4b565b8181036080830152611bfa818b611b54565b9050611c0960a083018a611a4b565b611c1660c0830189611b8d565b611c2360e0830188611a4b565b611c31610100830187611a4b565b611c3f610120830186611a4b565b611c4d610140830185611a4b565b611c5b610160830184611b9c565b9d9c50505050505050505050505050565b600080fd5b600080fd5b7f4e487b7100000000000000000000000000000000000000000000000000000000600052604160045260246000fd5b611cae826117d4565b810181811067ffffffffffffffff82111715611ccd57611ccc611c76565b5b80604052505050565b6000611ce0611624565b9050611cec8282611ca5565b919050565b600067ffffffffffffffff821115611d0c57611d0b611c76565b5b611d15826117d4565b9050602081019050919050565b82818337600083830152505050565b6000611d44611d3f84611cf1565b611cd6565b905082815260208101848484011115611d6057611d5f611c71565b5b611d6b848285611d22565b509392505050565b600082601f830112611d8857611d87611c6c565b5b8135611d98848260208601611d31565b91505092915050565b600080600060608486031215611dba57611db961162e565b5b6000611dc886828701611ab5565b935050602084013567ffffffffffffffff811115611de957611de8611633565b5b611df586828701611d73565b9250506040611e0686828701611ab5565b9150509250925092565b7f4e487b7100000000000000000000000000000000000000000000000000000000600052603260045260246000fd5b7f4e487b7100000000000000000000000000000000000000000000000000000000600052602260045260246000fd5b60006002820490506001821680611e8657607f821691505b602082108103611e9957611e98611e3f565b5b50919050565b7f4e487b7100000000000000000000000000000000000000000000000000000000600052601160045260246000fd5b6000611ed982611766565b91507fffffffffffffffffffffffffffffffffffffffffffffffffffffffffffffffff8203611f0b57611f0a611e9f565b5b600182019050919050565b6000604082019050611f2b6000830185611a4b565b611f386020830184611a4b565b9392505050565b6000611f4a82611766565b9150611f5583611766565b9250828203905081811115611f6d57611f6c611e9f565b5b92915050565b6000611f7e82611766565b9150611f8983611766565b9250828202611f9781611766565b91508282048414831517611fae57611fad611e9f565b5b5092915050565b7f4e487b7100000000000000000000000000000000000000000000000000000000600052601260045260246000fd5b6000611fef82611766565b9150611ffa83611766565b92508261200a57612009611fb5565b5b828204905092915050565b600061202082611766565b915061202b83611766565b925082820190508082111561204357612042611e9f565b5b92915050565b60008190508160005260206000209050919050565b60006020601f8301049050919050565b600082821b905092915050565b6000600883026120ab7fffffffffffffffffffffffffffffffffffffffffffffffffffffffffffffffff8261206e565b6120b5868361206e565b95508019841693508086168417925050509392505050565b6000819050919050565b60006120f26120ed6120e884611766565b6120cd565b611766565b9050919050565b6000819050919050565b61210c836120d7565b612120612118826120f9565b84845461207b565b825550505050565b600090565b612135612128565b612140818484612103565b505050565b5b818110156121645761215960008261212d565b600181019050612146565b5050565b601f8211156121a95761217a81612049565b6121838461205e565b81016020851015612192578190505b6121a661219e8561205e565b830182612145565b50505b505050565b600082821c905092915050565b60006121cc600019846008026121ae565b1980831691505092915050565b60006121e583836121bb565b9150826002028217905092915050565b6121fe8261178e565b67ffffffffffffffff81111561221757612216611c76565b5b6122218254611e6e565b61222c828285612168565b600060209050601f83116001811461225f576000841561224d578287015190505b61225785826121d9565b8655506122bf565b601f19841661226d86612049565b60005b8281101561229557848901518255600182019150602085019450602081019050612270565b868310156122b257848901516122ae601f8916826121bb565b8355505b6001600288020188555050505b505050505050565b60006060820190506122dc6000830186611a4b565b81810360208301526122ee8185611b54565b90506122fd6040830184611a4b565b94935050505056fea264697066735822122016f889e3eca5dd1caf693c6c0bbb154fee81ffec56b11d2aea87ccefffd0995564736f6c63430008180033",
  "linkReferences": {},
  "deployedLinkReferences": {}
}