{
  "_format": "hh-sol-artifact-1",
  "contractName": "PeerToPeerLending",
  "sourceName": "contracts/PeerToPeerLending.sol",
  "abi": [
    {
      "anonymous": false,
      "inputs": [
        {
          "indexed": true,
          "internalType": "address",
          "name": "lender",
          "type": "address"
        },
        {
          "indexed": true,
          "internalType": "address",
          "name": "borrower",
          "type": "address"
        },
        {
          "indexed": false,
          "internalType": "uint256",
          "name": "amount",
          "type": "uint256"
        }
      ],
      "name": "LoanFunded",
      "type": "event"
    },
    {
      "anonymous": false,
      "inputs": [
        {
          "indexed": true,
          "internalType": "address",
          "name": "borrower",
          "type": "address"
        },
        {
          "indexed": true,
          "internalType": "address",
          "name": "lender",
          "type": "address"
        },
        {
          "indexed": false,
          "internalType": "uint256",
          "name": "amount",
          "type": "uint256"
        }
      ],
      "name": "LoanRepaid",
      "type": "event"
    },
    {
      "anonymous": false,
      "inputs": [
        {
          "indexed": true,
          "internalType": "address",
          "name": "borrower",
          "type": "address"
        },
        {
          "indexed": false,
          "internalType": "uint256",
          "name": "amount",
          "type": "uint256"
        },
        {
          "indexed": false,
          "internalType": "string",
          "name": "mortgageCID",
          "type": "string"
        },
        {
          "indexed": false,
          "internalType": "uint256",
          "name": "dueDate",
          "type": "uint256"
        }
      ],
      "name": "LoanRequested",
      "type": "event"
    },
    {
      "inputs": [
        {
          "internalType": "address",
          "name": "",
          "type": "address"
        }
      ],
      "name": "accountTypes",
      "outputs": [
        {
          "internalType": "enum PeerToPeerLending.AccountType",
          "name": "",
          "type": "uint8"
        }
      ],
      "stateMutability": "view",
      "type": "function"
    },
    {
      "inputs": [
        {
          "internalType": "uint256",
          "name": "",
          "type": "uint256"
        }
      ],
      "name": "allLoans",
      "outputs": [
        {
          "internalType": "address",
          "name": "borrower",
          "type": "address"
        },
        {
          "internalType": "address",
          "name": "lender",
          "type": "address"
        },
        {
          "internalType": "uint256",
          "name": "amount",
          "type": "uint256"
        },
        {
          "internalType": "string",
          "name": "mortgageCID",
          "type": "string"
        },
        {
          "internalType": "uint256",
          "name": "dueDate",
          "type": "uint256"
        },
        {
          "internalType": "enum PeerToPeerLending.LoanStatus",
          "name": "status",
          "type": "uint8"
        }
      ],
      "stateMutability": "view",
      "type": "function"
    },
    {
      "inputs": [
        {
          "internalType": "address",
          "name": "",
          "type": "address"
        },
        {
          "internalType": "uint256",
          "name": "",
          "type": "uint256"
        }
      ],
      "name": "borrowerLoans",
      "outputs": [
        {
          "internalType": "address",
          "name": "borrower",
          "type": "address"
        },
        {
          "internalType": "address",
          "name": "lender",
          "type": "address"
        },
        {
          "internalType": "uint256",
          "name": "amount",
          "type": "uint256"
        },
        {
          "internalType": "string",
          "name": "mortgageCID",
          "type": "string"
        },
        {
          "internalType": "uint256",
          "name": "dueDate",
          "type": "uint256"
        },
        {
          "internalType": "enum PeerToPeerLending.LoanStatus",
          "name": "status",
          "type": "uint8"
        }
      ],
      "stateMutability": "view",
      "type": "function"
    },
    {
      "inputs": [
        {
          "internalType": "uint256",
          "name": "_loanIndex",
          "type": "uint256"
        }
      ],
      "name": "fundLoan",
      "outputs": [],
      "stateMutability": "payable",
      "type": "function"
    },
    {
      "inputs": [
        {
          "internalType": "address",
          "name": "_account",
          "type": "address"
        }
      ],
      "name": "getAccountDetails",
      "outputs": [
        {
          "internalType": "uint8",
          "name": "accountType",
          "type": "uint8"
        },
        {
          "internalType": "uint256",
          "name": "borrowerLoanCount",
          "type": "uint256"
        },
        {
          "internalType": "uint256",
          "name": "lenderLoanCount",
          "type": "uint256"
        }
      ],
      "stateMutability": "view",
      "type": "function"
    },
    {
      "inputs": [],
      "name": "getAllLoans",
      "outputs": [
        {
          "components": [
            {
              "internalType": "address",
              "name": "borrower",
              "type": "address"
            },
            {
              "internalType": "address",
              "name": "lender",
              "type": "address"
            },
            {
              "internalType": "uint256",
              "name": "amount",
              "type": "uint256"
            },
            {
              "internalType": "string",
              "name": "mortgageCID",
              "type": "string"
            },
            {
              "internalType": "uint256",
              "name": "dueDate",
              "type": "uint256"
            },
            {
              "internalType": "enum PeerToPeerLending.LoanStatus",
              "name": "status",
              "type": "uint8"
            }
          ],
          "internalType": "struct PeerToPeerLending.Loan[]",
          "name": "",
          "type": "tuple[]"
        }
      ],
      "stateMutability": "view",
      "type": "function"
    },
    {
      "inputs": [
        {
          "internalType": "address",
          "name": "_borrower",
          "type": "address"
        },
        {
          "internalType": "uint256",
          "name": "_index",
          "type": "uint256"
        }
      ],
      "name": "getBorrowerLoan",
      "outputs": [
        {
          "internalType": "uint256",
          "name": "amount",
          "type": "uint256"
        },
        {
          "internalType": "string",
          "name": "mortgageCID",
          "type": "string"
        },
        {
          "internalType": "uint256",
          "name": "dueDate",
          "type": "uint256"
        },
        {
          "internalType": "enum PeerToPeerLending.LoanStatus",
          "name": "status",
          "type": "uint8"
        }
      ],
      "stateMutability": "view",
      "type": "function"
    },
    {
      "inputs": [
        {
          "internalType": "address",
          "name": "_lender",
          "type": "address"
        },
        {
          "internalType": "uint256",
          "name": "_index",
          "type": "uint256"
        }
      ],
      "name": "getLenderLoan",
      "outputs": [
        {
          "internalType": "address",
          "name": "borrower",
          "type": "address"
        },
        {
          "internalType": "uint256",
          "name": "amount",
          "type": "uint256"
        },
        {
          "internalType": "string",
          "name": "mortgageCID",
          "type": "string"
        },
        {
          "internalType": "uint256",
          "name": "dueDate",
          "type": "uint256"
        },
        {
          "internalType": "enum PeerToPeerLending.LoanStatus",
          "name": "status",
          "type": "uint8"
        }
      ],
      "stateMutability": "view",
      "type": "function"
    },
    {
      "inputs": [
        {
          "internalType": "address",
          "name": "",
          "type": "address"
        },
        {
          "internalType": "uint256",
          "name": "",
          "type": "uint256"
        }
      ],
      "name": "lenderLoans",
      "outputs": [
        {
          "internalType": "address",
          "name": "borrower",
          "type": "address"
        },
        {
          "internalType": "address",
          "name": "lender",
          "type": "address"
        },
        {
          "internalType": "uint256",
          "name": "amount",
          "type": "uint256"
        },
        {
          "internalType": "string",
          "name": "mortgageCID",
          "type": "string"
        },
        {
          "internalType": "uint256",
          "name": "dueDate",
          "type": "uint256"
        },
        {
          "internalType": "enum PeerToPeerLending.LoanStatus",
          "name": "status",
          "type": "uint8"
        }
      ],
      "stateMutability": "view",
      "type": "function"
    },
    {
      "inputs": [
        {
          "internalType": "uint256",
          "name": "_loanIndex",
          "type": "uint256"
        }
      ],
      "name": "repayLoan",
      "outputs": [],
      "stateMutability": "payable",
      "type": "function"
    },
    {
      "inputs": [
        {
          "internalType": "uint256",
          "name": "_amount",
          "type": "uint256"
        },
        {
          "internalType": "string",
          "name": "_mortgageCID",
          "type": "string"
        },
        {
          "internalType": "uint256",
          "name": "_dueDate",
          "type": "uint256"
        }
      ],
      "name": "requestLoan",
      "outputs": [],
      "stateMutability": "nonpayable",
      "type": "function"
    }
  ],
  "bytecode": "0x608060405234801561001057600080fd5b50612800806100206000396000f3fe60806040526004361061009c5760003560e01c8063a5bfd16a11610064578063a5bfd16a146101c1578063ab7b1c89146101ec578063c713bf8c14610208578063de32b68014610248578063e3ed190214610285578063f1604fee146102c75761009c565b806307602bbd146100a15780631b8a3548146100e25780632aceb534146101245780633cdb72f114610163578063846b909a146101a5575b600080fd5b3480156100ad57600080fd5b506100c860048036038101906100c39190611941565b6102f0565b6040516100d9959493929190611aa6565b60405180910390f35b3480156100ee57600080fd5b5061010960048036038101906101049190611b00565b6104c5565b60405161011b96959493929190611b2d565b60405180910390f35b34801561013057600080fd5b5061014b60048036038101906101469190611b95565b6105e6565b60405161015a93929190611bde565b60405180910390f35b34801561016f57600080fd5b5061018a60048036038101906101859190611941565b6106dd565b60405161019c96959493929190611b2d565b60405180910390f35b6101bf60048036038101906101ba9190611b00565b61080b565b005b3480156101cd57600080fd5b506101d6610cd5565b6040516101e39190611dd7565b60405180910390f35b61020660048036038101906102019190611b00565b610ec1565b005b34801561021457600080fd5b5061022f600480360381019061022a9190611941565b611107565b60405161023f9493929190611df9565b60405180910390f35b34801561025457600080fd5b5061026f600480360381019061026a9190611b95565b6112b3565b60405161027c9190611e8d565b60405180910390f35b34801561029157600080fd5b506102ac60048036038101906102a79190611941565b6112d3565b6040516102be96959493929190611b2d565b60405180910390f35b3480156102d357600080fd5b506102ee60048036038101906102e99190611fdd565b611401565b005b6000806060600080600360008873ffffffffffffffffffffffffffffffffffffffff1673ffffffffffffffffffffffffffffffffffffffff16815260200190815260200160002080549050861061037c576040517f08c379a000000000000000000000000000000000000000000000000000000000815260040161037390612098565b60405180910390fd5b6000600360008973ffffffffffffffffffffffffffffffffffffffff1673ffffffffffffffffffffffffffffffffffffffff16815260200190815260200160002087815481106103cf576103ce6120b8565b5b906000526020600020906006020190508060000160009054906101000a900473ffffffffffffffffffffffffffffffffffffffff1681600201548260030183600401548460050160009054906101000a900460ff1682805461043090612116565b80601f016020809104026020016040519081016040528092919081815260200182805461045c90612116565b80156104a95780601f1061047e576101008083540402835291602001916104a9565b820191906000526020600020905b81548152906001019060200180831161048c57829003601f168201915b5050505050925095509550955095509550509295509295909350565b600081815481106104d557600080fd5b90600052602060002090600602016000915090508060000160009054906101000a900473ffffffffffffffffffffffffffffffffffffffff16908060010160009054906101000a900473ffffffffffffffffffffffffffffffffffffffff169080600201549080600301805461054a90612116565b80601f016020809104026020016040519081016040528092919081815260200182805461057690612116565b80156105c35780601f10610598576101008083540402835291602001916105c3565b820191906000526020600020905b8154815290600101906020018083116105a657829003601f168201915b5050505050908060040154908060050160009054906101000a900460ff16905086565b6000806000600160008573ffffffffffffffffffffffffffffffffffffffff1673ffffffffffffffffffffffffffffffffffffffff16815260200190815260200160002060009054906101000a900460ff16600281111561064a57610649611a2f565b5b9250600260008573ffffffffffffffffffffffffffffffffffffffff1673ffffffffffffffffffffffffffffffffffffffff168152602001908152602001600020805490509150600360008573ffffffffffffffffffffffffffffffffffffffff1673ffffffffffffffffffffffffffffffffffffffff1681526020019081526020016000208054905090509193909250565b600360205281600052604060002081815481106106f957600080fd5b9060005260206000209060060201600091509150508060000160009054906101000a900473ffffffffffffffffffffffffffffffffffffffff16908060010160009054906101000a900473ffffffffffffffffffffffffffffffffffffffff169080600201549080600301805461076f90612116565b80601f016020809104026020016040519081016040528092919081815260200182805461079b90612116565b80156107e85780601f106107bd576101008083540402835291602001916107e8565b820191906000526020600020905b8154815290600101906020018083116107cb57829003601f168201915b5050505050908060040154908060050160009054906101000a900460ff16905086565b60008082815481106108205761081f6120b8565b5b906000526020600020906006020190506000600281111561084457610843611a2f565b5b8160050160009054906101000a900460ff16600281111561086857610867611a2f565b5b146108a8576040517f08c379a000000000000000000000000000000000000000000000000000000000815260040161089f90612193565b60405180910390fd5b806002015434146108ee576040517f08c379a00000000000000000000000000000000000000000000000000000000081526004016108e5906121ff565b60405180910390fd5b6000600281111561090257610901611a2f565b5b600160003373ffffffffffffffffffffffffffffffffffffffff1673ffffffffffffffffffffffffffffffffffffffff16815260200190815260200160002060009054906101000a900460ff16600281111561096157610960611a2f565b5b036109ce5760018060003373ffffffffffffffffffffffffffffffffffffffff1673ffffffffffffffffffffffffffffffffffffffff16815260200190815260200160002060006101000a81548160ff021916908360028111156109c8576109c7611a2f565b5b02179055505b60018160050160006101000a81548160ff021916908360028111156109f6576109f5611a2f565b5b0217905550338160010160006101000a81548173ffffffffffffffffffffffffffffffffffffffff021916908373ffffffffffffffffffffffffffffffffffffffff160217905550600360003373ffffffffffffffffffffffffffffffffffffffff1673ffffffffffffffffffffffffffffffffffffffff1681526020019081526020016000208190806001815401808255809150506001900390600052602060002090600602016000909190919091506000820160009054906101000a900473ffffffffffffffffffffffffffffffffffffffff168160000160006101000a81548173ffffffffffffffffffffffffffffffffffffffff021916908373ffffffffffffffffffffffffffffffffffffffff1602179055506001820160009054906101000a900473ffffffffffffffffffffffffffffffffffffffff168160010160006101000a81548173ffffffffffffffffffffffffffffffffffffffff021916908373ffffffffffffffffffffffffffffffffffffffff1602179055506002820154816002015560038201816003019081610b9391906123e1565b50600482015481600401556005820160009054906101000a900460ff168160050160006101000a81548160ff02191690836002811115610bd657610bd5611a2f565b5b021790555050508060000160009054906101000a900473ffffffffffffffffffffffffffffffffffffffff1673ffffffffffffffffffffffffffffffffffffffff166108fc349081150290604051600060405180830381858888f19350505050158015610c47573d6000803e3d6000fd5b508060000160009054906101000a900473ffffffffffffffffffffffffffffffffffffffff1673ffffffffffffffffffffffffffffffffffffffff163373ffffffffffffffffffffffffffffffffffffffff167ff62badb063ea4b26543119fa0f194f8c19665e8c9d635362e24e7681d6cfb6af34604051610cc991906124c9565b60405180910390a35050565b60606000805480602002602001604051908101604052809291908181526020016000905b82821015610eb857838290600052602060002090600602016040518060c00160405290816000820160009054906101000a900473ffffffffffffffffffffffffffffffffffffffff1673ffffffffffffffffffffffffffffffffffffffff1673ffffffffffffffffffffffffffffffffffffffff1681526020016001820160009054906101000a900473ffffffffffffffffffffffffffffffffffffffff1673ffffffffffffffffffffffffffffffffffffffff1673ffffffffffffffffffffffffffffffffffffffff16815260200160028201548152602001600382018054610de290612116565b80601f0160208091040260200160405190810160405280929190818152602001828054610e0e90612116565b8015610e5b5780601f10610e3057610100808354040283529160200191610e5b565b820191906000526020600020905b815481529060010190602001808311610e3e57829003601f168201915b50505050508152602001600482015481526020016005820160009054906101000a900460ff166002811115610e9357610e92611a2f565b5b6002811115610ea557610ea4611a2f565b5b8152505081526020019060010190610cf9565b50505050905090565b6000600260003373ffffffffffffffffffffffffffffffffffffffff1673ffffffffffffffffffffffffffffffffffffffff1681526020019081526020016000208281548110610f1457610f136120b8565b5b9060005260206000209060060201905060016002811115610f3857610f37611a2f565b5b8160050160009054906101000a900460ff166002811115610f5c57610f5b611a2f565b5b14610f9c576040517f08c379a0000000000000000000000000000000000000000000000000000000008152600401610f9390612530565b60405180910390fd5b80600201543414610fe2576040517f08c379a0000000000000000000000000000000000000000000000000000000008152600401610fd99061259c565b60405180910390fd5b60028160050160006101000a81548160ff0219169083600281111561100a57611009611a2f565b5b02179055508060010160009054906101000a900473ffffffffffffffffffffffffffffffffffffffff1673ffffffffffffffffffffffffffffffffffffffff166108fc349081150290604051600060405180830381858888f19350505050158015611079573d6000803e3d6000fd5b508060010160009054906101000a900473ffffffffffffffffffffffffffffffffffffffff1673ffffffffffffffffffffffffffffffffffffffff163373ffffffffffffffffffffffffffffffffffffffff167ffe3c4f4ff6f11a42f9d84f777002ab405a07fc0075a3504d153b0587f61f460e346040516110fb91906124c9565b60405180910390a35050565b60006060600080600260008773ffffffffffffffffffffffffffffffffffffffff1673ffffffffffffffffffffffffffffffffffffffff168152602001908152602001600020805490508510611192576040517f08c379a000000000000000000000000000000000000000000000000000000000815260040161118990612098565b60405180910390fd5b6000600260008873ffffffffffffffffffffffffffffffffffffffff1673ffffffffffffffffffffffffffffffffffffffff16815260200190815260200160002086815481106111e5576111e46120b8565b5b9060005260206000209060060201905080600201548160030182600401548360050160009054906101000a900460ff1682805461122190612116565b80601f016020809104026020016040519081016040528092919081815260200182805461124d90612116565b801561129a5780601f1061126f5761010080835404028352916020019161129a565b820191906000526020600020905b81548152906001019060200180831161127d57829003601f168201915b5050505050925094509450945094505092959194509250565b60016020528060005260406000206000915054906101000a900460ff1681565b600260205281600052604060002081815481106112ef57600080fd5b9060005260206000209060060201600091509150508060000160009054906101000a900473ffffffffffffffffffffffffffffffffffffffff16908060010160009054906101000a900473ffffffffffffffffffffffffffffffffffffffff169080600201549080600301805461136590612116565b80601f016020809104026020016040519081016040528092919081815260200182805461139190612116565b80156113de5780601f106113b3576101008083540402835291602001916113de565b820191906000526020600020905b8154815290600101906020018083116113c157829003601f168201915b5050505050908060040154908060050160009054906101000a900460ff16905086565b60008311611444576040517f08c379a000000000000000000000000000000000000000000000000000000000815260040161143b9061262e565b60405180910390fd5b428111611486576040517f08c379a000000000000000000000000000000000000000000000000000000000815260040161147d9061269a565b60405180910390fd5b6000600281111561149a57611499611a2f565b5b600160003373ffffffffffffffffffffffffffffffffffffffff1673ffffffffffffffffffffffffffffffffffffffff16815260200190815260200160002060009054906101000a900460ff1660028111156114f9576114f8611a2f565b5b03611567576002600160003373ffffffffffffffffffffffffffffffffffffffff1673ffffffffffffffffffffffffffffffffffffffff16815260200190815260200160002060006101000a81548160ff0219169083600281111561156157611560611a2f565b5b02179055505b60006040518060c001604052803373ffffffffffffffffffffffffffffffffffffffff168152602001600073ffffffffffffffffffffffffffffffffffffffff168152602001858152602001848152602001838152602001600060028111156115d3576115d2611a2f565b5b8152509050600260003373ffffffffffffffffffffffffffffffffffffffff1673ffffffffffffffffffffffffffffffffffffffff16815260200190815260200160002081908060018154018082558091505060019003906000526020600020906006020160009091909190915060008201518160000160006101000a81548173ffffffffffffffffffffffffffffffffffffffff021916908373ffffffffffffffffffffffffffffffffffffffff16021790555060208201518160010160006101000a81548173ffffffffffffffffffffffffffffffffffffffff021916908373ffffffffffffffffffffffffffffffffffffffff1602179055506040820151816002015560608201518160030190816116ee91906126ba565b506080820151816004015560a08201518160050160006101000a81548160ff0219169083600281111561172457611723611a2f565b5b02179055505050600081908060018154018082558091505060019003906000526020600020906006020160009091909190915060008201518160000160006101000a81548173ffffffffffffffffffffffffffffffffffffffff021916908373ffffffffffffffffffffffffffffffffffffffff16021790555060208201518160010160006101000a81548173ffffffffffffffffffffffffffffffffffffffff021916908373ffffffffffffffffffffffffffffffffffffffff16021790555060408201518160020155606082015181600301908161180491906126ba565b506080820151816004015560a08201518160050160006101000a81548160ff0219169083600281111561183a57611839611a2f565b5b021790555050503373ffffffffffffffffffffffffffffffffffffffff167f1615b9c45c4408cc71c7c278d14a2b8d1f8d40a03bcdd1b848d8c60f47645fe685858560405161188b9392919061278c565b60405180910390a250505050565b6000604051905090565b600080fd5b600080fd5b600073ffffffffffffffffffffffffffffffffffffffff82169050919050565b60006118d8826118ad565b9050919050565b6118e8816118cd565b81146118f357600080fd5b50565b600081359050611905816118df565b92915050565b6000819050919050565b61191e8161190b565b811461192957600080fd5b50565b60008135905061193b81611915565b92915050565b60008060408385031215611958576119576118a3565b5b6000611966858286016118f6565b92505060206119778582860161192c565b9150509250929050565b61198a816118cd565b82525050565b6119998161190b565b82525050565b600081519050919050565b600082825260208201905092915050565b60005b838110156119d95780820151818401526020810190506119be565b60008484015250505050565b6000601f19601f8301169050919050565b6000611a018261199f565b611a0b81856119aa565b9350611a1b8185602086016119bb565b611a24816119e5565b840191505092915050565b7f4e487b7100000000000000000000000000000000000000000000000000000000600052602160045260246000fd5b60038110611a6f57611a6e611a2f565b5b50565b6000819050611a8082611a5e565b919050565b6000611a9082611a72565b9050919050565b611aa081611a85565b82525050565b600060a082019050611abb6000830188611981565b611ac86020830187611990565b8181036040830152611ada81866119f6565b9050611ae96060830185611990565b611af66080830184611a97565b9695505050505050565b600060208284031215611b1657611b156118a3565b5b6000611b248482850161192c565b91505092915050565b600060c082019050611b426000830189611981565b611b4f6020830188611981565b611b5c6040830187611990565b8181036060830152611b6e81866119f6565b9050611b7d6080830185611990565b611b8a60a0830184611a97565b979650505050505050565b600060208284031215611bab57611baa6118a3565b5b6000611bb9848285016118f6565b91505092915050565b600060ff82169050919050565b611bd881611bc2565b82525050565b6000606082019050611bf36000830186611bcf565b611c006020830185611990565b611c0d6040830184611990565b949350505050565b600081519050919050565b600082825260208201905092915050565b6000819050602082019050919050565b611c4a816118cd565b82525050565b611c598161190b565b82525050565b600082825260208201905092915050565b6000611c7b8261199f565b611c858185611c5f565b9350611c958185602086016119bb565b611c9e816119e5565b840191505092915050565b611cb281611a85565b82525050565b600060c083016000830151611cd06000860182611c41565b506020830151611ce36020860182611c41565b506040830151611cf66040860182611c50565b5060608301518482036060860152611d0e8282611c70565b9150506080830151611d236080860182611c50565b5060a0830151611d3660a0860182611ca9565b508091505092915050565b6000611d4d8383611cb8565b905092915050565b6000602082019050919050565b6000611d6d82611c15565b611d778185611c20565b935083602082028501611d8985611c31565b8060005b85811015611dc55784840389528151611da68582611d41565b9450611db183611d55565b925060208a01995050600181019050611d8d565b50829750879550505050505092915050565b60006020820190508181036000830152611df18184611d62565b905092915050565b6000608082019050611e0e6000830187611990565b8181036020830152611e2081866119f6565b9050611e2f6040830185611990565b611e3c6060830184611a97565b95945050505050565b60038110611e5657611e55611a2f565b5b50565b6000819050611e6782611e45565b919050565b6000611e7782611e59565b9050919050565b611e8781611e6c565b82525050565b6000602082019050611ea26000830184611e7e565b92915050565b600080fd5b600080fd5b7f4e487b7100000000000000000000000000000000000000000000000000000000600052604160045260246000fd5b611eea826119e5565b810181811067ffffffffffffffff82111715611f0957611f08611eb2565b5b80604052505050565b6000611f1c611899565b9050611f288282611ee1565b919050565b600067ffffffffffffffff821115611f4857611f47611eb2565b5b611f51826119e5565b9050602081019050919050565b82818337600083830152505050565b6000611f80611f7b84611f2d565b611f12565b905082815260208101848484011115611f9c57611f9b611ead565b5b611fa7848285611f5e565b509392505050565b600082601f830112611fc457611fc3611ea8565b5b8135611fd4848260208601611f6d565b91505092915050565b600080600060608486031215611ff657611ff56118a3565b5b60006120048682870161192c565b935050602084013567ffffffffffffffff811115612025576120246118a8565b5b61203186828701611faf565b92505060406120428682870161192c565b9150509250925092565b7f4c6f616e20696e646578206f7574206f6620626f756e64730000000000000000600082015250565b60006120826018836119aa565b915061208d8261204c565b602082019050919050565b600060208201905081810360008301526120b181612075565b9050919050565b7f4e487b7100000000000000000000000000000000000000000000000000000000600052603260045260246000fd5b7f4e487b7100000000000000000000000000000000000000000000000000000000600052602260045260246000fd5b6000600282049050600182168061212e57607f821691505b602082108103612141576121406120e7565b5b50919050565b7f4c6f616e206973206e6f7420696e20612066756e6461626c6520737461746500600082015250565b600061217d601f836119aa565b915061218882612147565b602082019050919050565b600060208201905081810360008301526121ac81612170565b9050919050565b7f496e636f7272656374206c6f616e20616d6f756e742073656e74000000000000600082015250565b60006121e9601a836119aa565b91506121f4826121b3565b602082019050919050565b60006020820190508181036000830152612218816121dc565b9050919050565b60008154905061222e81612116565b9050919050565b60008190508160005260206000209050919050565b60006020601f8301049050919050565b600082821b905092915050565b6000600883026122977fffffffffffffffffffffffffffffffffffffffffffffffffffffffffffffffff8261225a565b6122a1868361225a565b95508019841693508086168417925050509392505050565b6000819050919050565b60006122de6122d96122d48461190b565b6122b9565b61190b565b9050919050565b6000819050919050565b6122f8836122c3565b61230c612304826122e5565b848454612267565b825550505050565b600090565b612321612314565b61232c8184846122ef565b505050565b5b8181101561235057612345600082612319565b600181019050612332565b5050565b601f8211156123955761236681612235565b61236f8461224a565b8101602085101561237e578190505b61239261238a8561224a565b830182612331565b50505b505050565b600082821c905092915050565b60006123b86000198460080261239a565b1980831691505092915050565b60006123d183836123a7565b9150826002028217905092915050565b8181036123ef5750506124c7565b6123f88261221f565b67ffffffffffffffff81111561241157612410611eb2565b5b61241b8254612116565b612426828285612354565b6000601f8311600181146124555760008415612443578287015490505b61244d85826123c5565b8655506124c0565b601f19841661246387612235565b965061246e86612235565b60005b8281101561249657848901548255600182019150600185019450602081019050612471565b868310156124b357848901546124af601f8916826123a7565b8355505b6001600288020188555050505b5050505050505b565b60006020820190506124de6000830184611990565b92915050565b7f4c6f616e206973206e6f7420696e206120726570617961626c65207374617465600082015250565b600061251a6020836119aa565b9150612525826124e4565b602082019050919050565b600060208201905081810360008301526125498161250d565b9050919050565b7f496e636f72726563742072657061796d656e7420616d6f756e742073656e7400600082015250565b6000612586601f836119aa565b915061259182612550565b602082019050919050565b600060208201905081810360008301526125b581612579565b9050919050565b7f4c6f616e20616d6f756e74206d7573742062652067726561746572207468616e60008201527f2030000000000000000000000000000000000000000000000000000000000000602082015250565b60006126186022836119aa565b9150612623826125bc565b604082019050919050565b600060208201905081810360008301526126478161260b565b9050919050565b7f4475652064617465206d75737420626520696e20746865206675747572650000600082015250565b6000612684601e836119aa565b915061268f8261264e565b602082019050919050565b600060208201905081810360008301526126b381612677565b9050919050565b6126c38261199f565b67ffffffffffffffff8111156126dc576126db611eb2565b5b6126e68254612116565b6126f1828285612354565b600060209050601f8311600181146127245760008415612712578287015190505b61271c85826123c5565b865550612784565b601f19841661273286612235565b60005b8281101561275a57848901518255600182019150602085019450602081019050612735565b868310156127775784890151612773601f8916826123a7565b8355505b6001600288020188555050505b505050505050565b60006060820190506127a16000830186611990565b81810360208301526127b381856119f6565b90506127c26040830184611990565b94935050505056fea2646970667358221220530a0c77d90d7a7a36e1d91fc4a34fde674ea56f4aaabe552564de1474bda84c64736f6c63430008180033",
  "linkReferences": {},
  "deployedLinkReferences": {}
}