{
  "_format": "hh-sol-artifact-1",
  "contractName": "PeerToPeerLending",
  "sourceName": "contracts/PeerToPeerLending.sol",
  "abi": [
    {
      "anonymous": false,
      "inputs": [
        {
          "indexed": true,
          "internalType": "address",
          "name": "lender",
          "type": "address"
        },
        {
          "indexed": true,
          "internalType": "address",
          "name": "borrower",
          "type": "address"
        },
        {
          "indexed": false,
          "internalType": "uint256",
          "name": "amount",
          "type": "uint256"
        }
      ],
      "name": "LoanFunded",
      "type": "event"
    },
    {
      "anonymous": false,
      "inputs": [
        {
          "indexed": true,
          "internalType": "address",
          "name": "borrower",
          "type": "address"
        },
        {
          "indexed": true,
          "internalType": "address",
          "name": "lender",
          "type": "address"
        },
        {
          "indexed": false,
          "internalType": "uint256",
          "name": "amount",
          "type": "uint256"
        }
      ],
      "name": "LoanRepaid",
      "type": "event"
    },
    {
      "anonymous": false,
      "inputs": [
        {
          "indexed": true,
          "internalType": "address",
          "name": "borrower",
          "type": "address"
        },
        {
          "indexed": false,
          "internalType": "uint256",
          "name": "amount",
          "type": "uint256"
        },
        {
          "indexed": false,
          "internalType": "string",
          "name": "mortgageCID",
          "type": "string"
        },
        {
          "indexed": false,
          "internalType": "uint256",
          "name": "dueDate",
          "type": "uint256"
        }
      ],
      "name": "LoanRequested",
      "type": "event"
    },
    {
      "inputs": [
        {
          "internalType": "address",
          "name": "",
          "type": "address"
        }
      ],
      "name": "accountTypes",
      "outputs": [
        {
          "internalType": "enum PeerToPeerLending.AccountType",
          "name": "",
          "type": "uint8"
        }
      ],
      "stateMutability": "view",
      "type": "function"
    },
    {
      "inputs": [
        {
          "internalType": "uint256",
          "name": "",
          "type": "uint256"
        }
      ],
      "name": "allLoans",
      "outputs": [
        {
          "internalType": "address",
          "name": "borrower",
          "type": "address"
        },
        {
          "internalType": "address",
          "name": "lender",
          "type": "address"
        },
        {
          "internalType": "uint256",
          "name": "amount",
          "type": "uint256"
        },
        {
          "internalType": "string",
          "name": "mortgageCID",
          "type": "string"
        },
        {
          "internalType": "uint256",
          "name": "dueDate",
          "type": "uint256"
        },
        {
          "internalType": "enum PeerToPeerLending.LoanStatus",
          "name": "status",
          "type": "uint8"
        }
      ],
      "stateMutability": "view",
      "type": "function"
    },
    {
      "inputs": [
        {
          "internalType": "address",
          "name": "",
          "type": "address"
        },
        {
          "internalType": "uint256",
          "name": "",
          "type": "uint256"
        }
      ],
      "name": "borrowerLoans",
      "outputs": [
        {
          "internalType": "address",
          "name": "borrower",
          "type": "address"
        },
        {
          "internalType": "address",
          "name": "lender",
          "type": "address"
        },
        {
          "internalType": "uint256",
          "name": "amount",
          "type": "uint256"
        },
        {
          "internalType": "string",
          "name": "mortgageCID",
          "type": "string"
        },
        {
          "internalType": "uint256",
          "name": "dueDate",
          "type": "uint256"
        },
        {
          "internalType": "enum PeerToPeerLending.LoanStatus",
          "name": "status",
          "type": "uint8"
        }
      ],
      "stateMutability": "view",
      "type": "function"
    },
    {
      "inputs": [
        {
          "internalType": "uint256",
          "name": "_loanIndex",
          "type": "uint256"
        }
      ],
      "name": "fundLoan",
      "outputs": [],
      "stateMutability": "payable",
      "type": "function"
    },
    {
      "inputs": [
        {
          "internalType": "address",
          "name": "_account",
          "type": "address"
        }
      ],
      "name": "getAccountDetails",
      "outputs": [
        {
          "internalType": "uint8",
          "name": "accountType",
          "type": "uint8"
        },
        {
          "internalType": "uint256",
          "name": "borrowerLoanCount",
          "type": "uint256"
        },
        {
          "internalType": "uint256",
          "name": "lenderLoanCount",
          "type": "uint256"
        }
      ],
      "stateMutability": "view",
      "type": "function"
    },
    {
      "inputs": [],
      "name": "getAllLoans",
      "outputs": [
        {
          "components": [
            {
              "internalType": "address",
              "name": "borrower",
              "type": "address"
            },
            {
              "internalType": "address",
              "name": "lender",
              "type": "address"
            },
            {
              "internalType": "uint256",
              "name": "amount",
              "type": "uint256"
            },
            {
              "internalType": "string",
              "name": "mortgageCID",
              "type": "string"
            },
            {
              "internalType": "uint256",
              "name": "dueDate",
              "type": "uint256"
            },
            {
              "internalType": "enum PeerToPeerLending.LoanStatus",
              "name": "status",
              "type": "uint8"
            }
          ],
          "internalType": "struct PeerToPeerLending.Loan[]",
          "name": "",
          "type": "tuple[]"
        }
      ],
      "stateMutability": "view",
      "type": "function"
    },
    {
      "inputs": [
        {
          "internalType": "address",
          "name": "_borrower",
          "type": "address"
        },
        {
          "internalType": "uint256",
          "name": "_index",
          "type": "uint256"
        }
      ],
      "name": "getBorrowerLoan",
      "outputs": [
        {
          "internalType": "uint256",
          "name": "amount",
          "type": "uint256"
        },
        {
          "internalType": "string",
          "name": "mortgageCID",
          "type": "string"
        },
        {
          "internalType": "uint256",
          "name": "dueDate",
          "type": "uint256"
        },
        {
          "internalType": "enum PeerToPeerLending.LoanStatus",
          "name": "status",
          "type": "uint8"
        }
      ],
      "stateMutability": "view",
      "type": "function"
    },
    {
      "inputs": [
        {
          "internalType": "address",
          "name": "_lender",
          "type": "address"
        },
        {
          "internalType": "uint256",
          "name": "_index",
          "type": "uint256"
        }
      ],
      "name": "getLenderLoan",
      "outputs": [
        {
          "internalType": "address",
          "name": "borrower",
          "type": "address"
        },
        {
          "internalType": "uint256",
          "name": "amount",
          "type": "uint256"
        },
        {
          "internalType": "string",
          "name": "mortgageCID",
          "type": "string"
        },
        {
          "internalType": "uint256",
          "name": "dueDate",
          "type": "uint256"
        },
        {
          "internalType": "enum PeerToPeerLending.LoanStatus",
          "name": "status",
          "type": "uint8"
        }
      ],
      "stateMutability": "view",
      "type": "function"
    },
    {
      "inputs": [
        {
          "internalType": "address",
          "name": "",
          "type": "address"
        },
        {
          "internalType": "uint256",
          "name": "",
          "type": "uint256"
        }
      ],
      "name": "lenderLoans",
      "outputs": [
        {
          "internalType": "address",
          "name": "borrower",
          "type": "address"
        },
        {
          "internalType": "address",
          "name": "lender",
          "type": "address"
        },
        {
          "internalType": "uint256",
          "name": "amount",
          "type": "uint256"
        },
        {
          "internalType": "string",
          "name": "mortgageCID",
          "type": "string"
        },
        {
          "internalType": "uint256",
          "name": "dueDate",
          "type": "uint256"
        },
        {
          "internalType": "enum PeerToPeerLending.LoanStatus",
          "name": "status",
          "type": "uint8"
        }
      ],
      "stateMutability": "view",
      "type": "function"
    },
    {
      "inputs": [
        {
          "internalType": "uint256",
          "name": "_loanIndex",
          "type": "uint256"
        }
      ],
      "name": "repayLoan",
      "outputs": [],
      "stateMutability": "payable",
      "type": "function"
    },
    {
      "inputs": [
        {
          "internalType": "uint256",
          "name": "_amount",
          "type": "uint256"
        },
        {
          "internalType": "string",
          "name": "_mortgageCID",
          "type": "string"
        },
        {
          "internalType": "uint256",
          "name": "_dueDate",
          "type": "uint256"
        }
      ],
      "name": "requestLoan",
      "outputs": [],
      "stateMutability": "nonpayable",
      "type": "function"
    }
  ],
  "bytecode": "0x608060405234801561001057600080fd5b50612974806100206000396000f3fe60806040526004361061009c5760003560e01c8063a5bfd16a11610064578063a5bfd16a146101c1578063ab7b1c89146101ec578063c713bf8c14610208578063de32b68014610248578063e3ed190214610285578063f1604fee146102c75761009c565b806307602bbd146100a15780631b8a3548146100e25780632aceb534146101245780633cdb72f114610163578063846b909a146101a5575b600080fd5b3480156100ad57600080fd5b506100c860048036038101906100c39190611ab5565b6102f0565b6040516100d9959493929190611c1a565b60405180910390f35b3480156100ee57600080fd5b5061010960048036038101906101049190611c74565b6104c5565b60405161011b96959493929190611ca1565b60405180910390f35b34801561013057600080fd5b5061014b60048036038101906101469190611d09565b6105e6565b60405161015a93929190611d52565b60405180910390f35b34801561016f57600080fd5b5061018a60048036038101906101859190611ab5565b6106dd565b60405161019c96959493929190611ca1565b60405180910390f35b6101bf60048036038101906101ba9190611c74565b61080b565b005b3480156101cd57600080fd5b506101d6610e49565b6040516101e39190611f4b565b60405180910390f35b61020660048036038101906102019190611c74565b611035565b005b34801561021457600080fd5b5061022f600480360381019061022a9190611ab5565b61127b565b60405161023f9493929190611f6d565b60405180910390f35b34801561025457600080fd5b5061026f600480360381019061026a9190611d09565b611427565b60405161027c9190612001565b60405180910390f35b34801561029157600080fd5b506102ac60048036038101906102a79190611ab5565b611447565b6040516102be96959493929190611ca1565b60405180910390f35b3480156102d357600080fd5b506102ee60048036038101906102e99190612151565b611575565b005b6000806060600080600360008873ffffffffffffffffffffffffffffffffffffffff1673ffffffffffffffffffffffffffffffffffffffff16815260200190815260200160002080549050861061037c576040517f08c379a00000000000000000000000000000000000000000000000000000000081526004016103739061220c565b60405180910390fd5b6000600360008973ffffffffffffffffffffffffffffffffffffffff1673ffffffffffffffffffffffffffffffffffffffff16815260200190815260200160002087815481106103cf576103ce61222c565b5b906000526020600020906006020190508060000160009054906101000a900473ffffffffffffffffffffffffffffffffffffffff1681600201548260030183600401548460050160009054906101000a900460ff168280546104309061228a565b80601f016020809104026020016040519081016040528092919081815260200182805461045c9061228a565b80156104a95780601f1061047e576101008083540402835291602001916104a9565b820191906000526020600020905b81548152906001019060200180831161048c57829003601f168201915b5050505050925095509550955095509550509295509295909350565b600081815481106104d557600080fd5b90600052602060002090600602016000915090508060000160009054906101000a900473ffffffffffffffffffffffffffffffffffffffff16908060010160009054906101000a900473ffffffffffffffffffffffffffffffffffffffff169080600201549080600301805461054a9061228a565b80601f01602080910402602001604051908101604052809291908181526020018280546105769061228a565b80156105c35780601f10610598576101008083540402835291602001916105c3565b820191906000526020600020905b8154815290600101906020018083116105a657829003601f168201915b5050505050908060040154908060050160009054906101000a900460ff16905086565b6000806000600160008573ffffffffffffffffffffffffffffffffffffffff1673ffffffffffffffffffffffffffffffffffffffff16815260200190815260200160002060009054906101000a900460ff16600281111561064a57610649611ba3565b5b9250600260008573ffffffffffffffffffffffffffffffffffffffff1673ffffffffffffffffffffffffffffffffffffffff168152602001908152602001600020805490509150600360008573ffffffffffffffffffffffffffffffffffffffff1673ffffffffffffffffffffffffffffffffffffffff1681526020019081526020016000208054905090509193909250565b600360205281600052604060002081815481106106f957600080fd5b9060005260206000209060060201600091509150508060000160009054906101000a900473ffffffffffffffffffffffffffffffffffffffff16908060010160009054906101000a900473ffffffffffffffffffffffffffffffffffffffff169080600201549080600301805461076f9061228a565b80601f016020809104026020016040519081016040528092919081815260200182805461079b9061228a565b80156107e85780601f106107bd576101008083540402835291602001916107e8565b820191906000526020600020905b8154815290600101906020018083116107cb57829003601f168201915b5050505050908060040154908060050160009054906101000a900460ff16905086565b60008082815481106108205761081f61222c565b5b906000526020600020906006020190506000600281111561084457610843611ba3565b5b8160050160009054906101000a900460ff16600281111561086857610867611ba3565b5b146108a8576040517f08c379a000000000000000000000000000000000000000000000000000000000815260040161089f90612307565b60405180910390fd5b806002015434146108ee576040517f08c379a00000000000000000000000000000000000000000000000000000000081526004016108e590612373565b60405180910390fd5b6000600281111561090257610901611ba3565b5b600160003373ffffffffffffffffffffffffffffffffffffffff1673ffffffffffffffffffffffffffffffffffffffff16815260200190815260200160002060009054906101000a900460ff16600281111561096157610960611ba3565b5b036109ce5760018060003373ffffffffffffffffffffffffffffffffffffffff1673ffffffffffffffffffffffffffffffffffffffff16815260200190815260200160002060006101000a81548160ff021916908360028111156109c8576109c7611ba3565b5b02179055505b60018160050160006101000a81548160ff021916908360028111156109f6576109f5611ba3565b5b0217905550338160010160006101000a81548173ffffffffffffffffffffffffffffffffffffffff021916908373ffffffffffffffffffffffffffffffffffffffff160217905550600360003373ffffffffffffffffffffffffffffffffffffffff1673ffffffffffffffffffffffffffffffffffffffff1681526020019081526020016000208190806001815401808255809150506001900390600052602060002090600602016000909190919091506000820160009054906101000a900473ffffffffffffffffffffffffffffffffffffffff168160000160006101000a81548173ffffffffffffffffffffffffffffffffffffffff021916908373ffffffffffffffffffffffffffffffffffffffff1602179055506001820160009054906101000a900473ffffffffffffffffffffffffffffffffffffffff168160010160006101000a81548173ffffffffffffffffffffffffffffffffffffffff021916908373ffffffffffffffffffffffffffffffffffffffff1602179055506002820154816002015560038201816003019081610b939190612555565b50600482015481600401556005820160009054906101000a900460ff168160050160006101000a81548160ff02191690836002811115610bd657610bd5611ba3565b5b021790555050506001600260008360000160009054906101000a900473ffffffffffffffffffffffffffffffffffffffff1673ffffffffffffffffffffffffffffffffffffffff1673ffffffffffffffffffffffffffffffffffffffff1681526020019081526020016000208381548110610c5457610c5361222c565b5b906000526020600020906006020160050160006101000a81548160ff02191690836002811115610c8757610c86611ba3565b5b021790555033600260008360000160009054906101000a900473ffffffffffffffffffffffffffffffffffffffff1673ffffffffffffffffffffffffffffffffffffffff1673ffffffffffffffffffffffffffffffffffffffff1681526020019081526020016000208381548110610d0257610d0161222c565b5b906000526020600020906006020160010160006101000a81548173ffffffffffffffffffffffffffffffffffffffff021916908373ffffffffffffffffffffffffffffffffffffffff1602179055508060000160009054906101000a900473ffffffffffffffffffffffffffffffffffffffff1673ffffffffffffffffffffffffffffffffffffffff166108fc349081150290604051600060405180830381858888f19350505050158015610dbb573d6000803e3d6000fd5b508060000160009054906101000a900473ffffffffffffffffffffffffffffffffffffffff1673ffffffffffffffffffffffffffffffffffffffff163373ffffffffffffffffffffffffffffffffffffffff167ff62badb063ea4b26543119fa0f194f8c19665e8c9d635362e24e7681d6cfb6af34604051610e3d919061263d565b60405180910390a35050565b60606000805480602002602001604051908101604052809291908181526020016000905b8282101561102c57838290600052602060002090600602016040518060c00160405290816000820160009054906101000a900473ffffffffffffffffffffffffffffffffffffffff1673ffffffffffffffffffffffffffffffffffffffff1673ffffffffffffffffffffffffffffffffffffffff1681526020016001820160009054906101000a900473ffffffffffffffffffffffffffffffffffffffff1673ffffffffffffffffffffffffffffffffffffffff1673ffffffffffffffffffffffffffffffffffffffff16815260200160028201548152602001600382018054610f569061228a565b80601f0160208091040260200160405190810160405280929190818152602001828054610f829061228a565b8015610fcf5780601f10610fa457610100808354040283529160200191610fcf565b820191906000526020600020905b815481529060010190602001808311610fb257829003601f168201915b50505050508152602001600482015481526020016005820160009054906101000a900460ff16600281111561100757611006611ba3565b5b600281111561101957611018611ba3565b5b8152505081526020019060010190610e6d565b50505050905090565b6000600260003373ffffffffffffffffffffffffffffffffffffffff1673ffffffffffffffffffffffffffffffffffffffff16815260200190815260200160002082815481106110885761108761222c565b5b90600052602060002090600602019050600160028111156110ac576110ab611ba3565b5b8160050160009054906101000a900460ff1660028111156110d0576110cf611ba3565b5b14611110576040517f08c379a0000000000000000000000000000000000000000000000000000000008152600401611107906126a4565b60405180910390fd5b80600201543414611156576040517f08c379a000000000000000000000000000000000000000000000000000000000815260040161114d90612710565b60405180910390fd5b60028160050160006101000a81548160ff0219169083600281111561117e5761117d611ba3565b5b02179055508060010160009054906101000a900473ffffffffffffffffffffffffffffffffffffffff1673ffffffffffffffffffffffffffffffffffffffff166108fc349081150290604051600060405180830381858888f193505050501580156111ed573d6000803e3d6000fd5b508060010160009054906101000a900473ffffffffffffffffffffffffffffffffffffffff1673ffffffffffffffffffffffffffffffffffffffff163373ffffffffffffffffffffffffffffffffffffffff167ffe3c4f4ff6f11a42f9d84f777002ab405a07fc0075a3504d153b0587f61f460e3460405161126f919061263d565b60405180910390a35050565b60006060600080600260008773ffffffffffffffffffffffffffffffffffffffff1673ffffffffffffffffffffffffffffffffffffffff168152602001908152602001600020805490508510611306576040517f08c379a00000000000000000000000000000000000000000000000000000000081526004016112fd9061220c565b60405180910390fd5b6000600260008873ffffffffffffffffffffffffffffffffffffffff1673ffffffffffffffffffffffffffffffffffffffff16815260200190815260200160002086815481106113595761135861222c565b5b9060005260206000209060060201905080600201548160030182600401548360050160009054906101000a900460ff168280546113959061228a565b80601f01602080910402602001604051908101604052809291908181526020018280546113c19061228a565b801561140e5780601f106113e35761010080835404028352916020019161140e565b820191906000526020600020905b8154815290600101906020018083116113f157829003601f168201915b5050505050925094509450945094505092959194509250565b60016020528060005260406000206000915054906101000a900460ff1681565b6002602052816000526040600020818154811061146357600080fd5b9060005260206000209060060201600091509150508060000160009054906101000a900473ffffffffffffffffffffffffffffffffffffffff16908060010160009054906101000a900473ffffffffffffffffffffffffffffffffffffffff16908060020154908060030180546114d99061228a565b80601f01602080910402602001604051908101604052809291908181526020018280546115059061228a565b80156115525780601f1061152757610100808354040283529160200191611552565b820191906000526020600020905b81548152906001019060200180831161153557829003601f168201915b5050505050908060040154908060050160009054906101000a900460ff16905086565b600083116115b8576040517f08c379a00000000000000000000000000000000000000000000000000000000081526004016115af906127a2565b60405180910390fd5b4281116115fa576040517f08c379a00000000000000000000000000000000000000000000000000000000081526004016115f19061280e565b60405180910390fd5b6000600281111561160e5761160d611ba3565b5b600160003373ffffffffffffffffffffffffffffffffffffffff1673ffffffffffffffffffffffffffffffffffffffff16815260200190815260200160002060009054906101000a900460ff16600281111561166d5761166c611ba3565b5b036116db576002600160003373ffffffffffffffffffffffffffffffffffffffff1673ffffffffffffffffffffffffffffffffffffffff16815260200190815260200160002060006101000a81548160ff021916908360028111156116d5576116d4611ba3565b5b02179055505b60006040518060c001604052803373ffffffffffffffffffffffffffffffffffffffff168152602001600073ffffffffffffffffffffffffffffffffffffffff1681526020018581526020018481526020018381526020016000600281111561174757611746611ba3565b5b8152509050600260003373ffffffffffffffffffffffffffffffffffffffff1673ffffffffffffffffffffffffffffffffffffffff16815260200190815260200160002081908060018154018082558091505060019003906000526020600020906006020160009091909190915060008201518160000160006101000a81548173ffffffffffffffffffffffffffffffffffffffff021916908373ffffffffffffffffffffffffffffffffffffffff16021790555060208201518160010160006101000a81548173ffffffffffffffffffffffffffffffffffffffff021916908373ffffffffffffffffffffffffffffffffffffffff160217905550604082015181600201556060820151816003019081611862919061282e565b506080820151816004015560a08201518160050160006101000a81548160ff0219169083600281111561189857611897611ba3565b5b02179055505050600081908060018154018082558091505060019003906000526020600020906006020160009091909190915060008201518160000160006101000a81548173ffffffffffffffffffffffffffffffffffffffff021916908373ffffffffffffffffffffffffffffffffffffffff16021790555060208201518160010160006101000a81548173ffffffffffffffffffffffffffffffffffffffff021916908373ffffffffffffffffffffffffffffffffffffffff160217905550604082015181600201556060820151816003019081611978919061282e565b506080820151816004015560a08201518160050160006101000a81548160ff021916908360028111156119ae576119ad611ba3565b5b021790555050503373ffffffffffffffffffffffffffffffffffffffff167f1615b9c45c4408cc71c7c278d14a2b8d1f8d40a03bcdd1b848d8c60f47645fe68585856040516119ff93929190612900565b60405180910390a250505050565b6000604051905090565b600080fd5b600080fd5b600073ffffffffffffffffffffffffffffffffffffffff82169050919050565b6000611a4c82611a21565b9050919050565b611a5c81611a41565b8114611a6757600080fd5b50565b600081359050611a7981611a53565b92915050565b6000819050919050565b611a9281611a7f565b8114611a9d57600080fd5b50565b600081359050611aaf81611a89565b92915050565b60008060408385031215611acc57611acb611a17565b5b6000611ada85828601611a6a565b9250506020611aeb85828601611aa0565b9150509250929050565b611afe81611a41565b82525050565b611b0d81611a7f565b82525050565b600081519050919050565b600082825260208201905092915050565b60005b83811015611b4d578082015181840152602081019050611b32565b60008484015250505050565b6000601f19601f8301169050919050565b6000611b7582611b13565b611b7f8185611b1e565b9350611b8f818560208601611b2f565b611b9881611b59565b840191505092915050565b7f4e487b7100000000000000000000000000000000000000000000000000000000600052602160045260246000fd5b60038110611be357611be2611ba3565b5b50565b6000819050611bf482611bd2565b919050565b6000611c0482611be6565b9050919050565b611c1481611bf9565b82525050565b600060a082019050611c2f6000830188611af5565b611c3c6020830187611b04565b8181036040830152611c4e8186611b6a565b9050611c5d6060830185611b04565b611c6a6080830184611c0b565b9695505050505050565b600060208284031215611c8a57611c89611a17565b5b6000611c9884828501611aa0565b91505092915050565b600060c082019050611cb66000830189611af5565b611cc36020830188611af5565b611cd06040830187611b04565b8181036060830152611ce28186611b6a565b9050611cf16080830185611b04565b611cfe60a0830184611c0b565b979650505050505050565b600060208284031215611d1f57611d1e611a17565b5b6000611d2d84828501611a6a565b91505092915050565b600060ff82169050919050565b611d4c81611d36565b82525050565b6000606082019050611d676000830186611d43565b611d746020830185611b04565b611d816040830184611b04565b949350505050565b600081519050919050565b600082825260208201905092915050565b6000819050602082019050919050565b611dbe81611a41565b82525050565b611dcd81611a7f565b82525050565b600082825260208201905092915050565b6000611def82611b13565b611df98185611dd3565b9350611e09818560208601611b2f565b611e1281611b59565b840191505092915050565b611e2681611bf9565b82525050565b600060c083016000830151611e446000860182611db5565b506020830151611e576020860182611db5565b506040830151611e6a6040860182611dc4565b5060608301518482036060860152611e828282611de4565b9150506080830151611e976080860182611dc4565b5060a0830151611eaa60a0860182611e1d565b508091505092915050565b6000611ec18383611e2c565b905092915050565b6000602082019050919050565b6000611ee182611d89565b611eeb8185611d94565b935083602082028501611efd85611da5565b8060005b85811015611f395784840389528151611f1a8582611eb5565b9450611f2583611ec9565b925060208a01995050600181019050611f01565b50829750879550505050505092915050565b60006020820190508181036000830152611f658184611ed6565b905092915050565b6000608082019050611f826000830187611b04565b8181036020830152611f948186611b6a565b9050611fa36040830185611b04565b611fb06060830184611c0b565b95945050505050565b60038110611fca57611fc9611ba3565b5b50565b6000819050611fdb82611fb9565b919050565b6000611feb82611fcd565b9050919050565b611ffb81611fe0565b82525050565b60006020820190506120166000830184611ff2565b92915050565b600080fd5b600080fd5b7f4e487b7100000000000000000000000000000000000000000000000000000000600052604160045260246000fd5b61205e82611b59565b810181811067ffffffffffffffff8211171561207d5761207c612026565b5b80604052505050565b6000612090611a0d565b905061209c8282612055565b919050565b600067ffffffffffffffff8211156120bc576120bb612026565b5b6120c582611b59565b9050602081019050919050565b82818337600083830152505050565b60006120f46120ef846120a1565b612086565b9050828152602081018484840111156121105761210f612021565b5b61211b8482856120d2565b509392505050565b600082601f8301126121385761213761201c565b5b81356121488482602086016120e1565b91505092915050565b60008060006060848603121561216a57612169611a17565b5b600061217886828701611aa0565b935050602084013567ffffffffffffffff81111561219957612198611a1c565b5b6121a586828701612123565b92505060406121b686828701611aa0565b9150509250925092565b7f4c6f616e20696e646578206f7574206f6620626f756e64730000000000000000600082015250565b60006121f6601883611b1e565b9150612201826121c0565b602082019050919050565b60006020820190508181036000830152612225816121e9565b9050919050565b7f4e487b7100000000000000000000000000000000000000000000000000000000600052603260045260246000fd5b7f4e487b7100000000000000000000000000000000000000000000000000000000600052602260045260246000fd5b600060028204905060018216806122a257607f821691505b6020821081036122b5576122b461225b565b5b50919050565b7f4c6f616e206973206e6f7420696e20612066756e6461626c6520737461746500600082015250565b60006122f1601f83611b1e565b91506122fc826122bb565b602082019050919050565b60006020820190508181036000830152612320816122e4565b9050919050565b7f496e636f7272656374206c6f616e20616d6f756e742073656e74000000000000600082015250565b600061235d601a83611b1e565b915061236882612327565b602082019050919050565b6000602082019050818103600083015261238c81612350565b9050919050565b6000815490506123a28161228a565b9050919050565b60008190508160005260206000209050919050565b60006020601f8301049050919050565b600082821b905092915050565b60006008830261240b7fffffffffffffffffffffffffffffffffffffffffffffffffffffffffffffffff826123ce565b61241586836123ce565b95508019841693508086168417925050509392505050565b6000819050919050565b600061245261244d61244884611a7f565b61242d565b611a7f565b9050919050565b6000819050919050565b61246c83612437565b61248061247882612459565b8484546123db565b825550505050565b600090565b612495612488565b6124a0818484612463565b505050565b5b818110156124c4576124b960008261248d565b6001810190506124a6565b5050565b601f821115612509576124da816123a9565b6124e3846123be565b810160208510156124f2578190505b6125066124fe856123be565b8301826124a5565b50505b505050565b600082821c905092915050565b600061252c6000198460080261250e565b1980831691505092915050565b6000612545838361251b565b9150826002028217905092915050565b81810361256357505061263b565b61256c82612393565b67ffffffffffffffff81111561258557612584612026565b5b61258f825461228a565b61259a8282856124c8565b6000601f8311600181146125c957600084156125b7578287015490505b6125c18582612539565b865550612634565b601f1984166125d7876123a9565b96506125e2866123a9565b60005b8281101561260a578489015482556001820191506001850194506020810190506125e5565b868310156126275784890154612623601f89168261251b565b8355505b6001600288020188555050505b5050505050505b565b60006020820190506126526000830184611b04565b92915050565b7f4c6f616e206973206e6f7420696e206120726570617961626c65207374617465600082015250565b600061268e602083611b1e565b915061269982612658565b602082019050919050565b600060208201905081810360008301526126bd81612681565b9050919050565b7f496e636f72726563742072657061796d656e7420616d6f756e742073656e7400600082015250565b60006126fa601f83611b1e565b9150612705826126c4565b602082019050919050565b60006020820190508181036000830152612729816126ed565b9050919050565b7f4c6f616e20616d6f756e74206d7573742062652067726561746572207468616e60008201527f2030000000000000000000000000000000000000000000000000000000000000602082015250565b600061278c602283611b1e565b915061279782612730565b604082019050919050565b600060208201905081810360008301526127bb8161277f565b9050919050565b7f4475652064617465206d75737420626520696e20746865206675747572650000600082015250565b60006127f8601e83611b1e565b9150612803826127c2565b602082019050919050565b60006020820190508181036000830152612827816127eb565b9050919050565b61283782611b13565b67ffffffffffffffff8111156128505761284f612026565b5b61285a825461228a565b6128658282856124c8565b600060209050601f8311600181146128985760008415612886578287015190505b6128908582612539565b8655506128f8565b601f1984166128a6866123a9565b60005b828110156128ce578489015182556001820191506020850194506020810190506128a9565b868310156128eb57848901516128e7601f89168261251b565b8355505b6001600288020188555050505b505050505050565b60006060820190506129156000830186611b04565b81810360208301526129278185611b6a565b90506129366040830184611b04565b94935050505056fea26469706673582212208999d40f8458a7353e331c4c582b909e4e6303dfcc9045a8eaedfc05c328ff3464736f6c63430008180033",
  "linkReferences": {},
  "deployedLinkReferences": {}
}